{
  "_format": "hh-sol-artifact-1",
  "contractName": "SimpleSwap",
  "sourceName": "contracts/swap.sol",
  "abi": [
    {
      "inputs": [
        {
          "internalType": "contract ISwapRouter",
          "name": "_swapRouter",
          "type": "address"
        }
      ],
      "stateMutability": "nonpayable",
      "type": "constructor"
    },
    {
      "inputs": [],
      "name": "DAI",
      "outputs": [
        {
          "internalType": "address",
          "name": "",
          "type": "address"
        }
      ],
      "stateMutability": "view",
      "type": "function"
    },
    {
      "inputs": [],
      "name": "WETH9",
      "outputs": [
        {
          "internalType": "address",
          "name": "",
          "type": "address"
        }
      ],
      "stateMutability": "view",
      "type": "function"
    },
    {
      "inputs": [],
      "name": "feeTier",
      "outputs": [
        {
          "internalType": "uint24",
          "name": "",
          "type": "uint24"
        }
      ],
      "stateMutability": "view",
      "type": "function"
    },
    {
      "inputs": [],
      "name": "swapRouter",
      "outputs": [
        {
          "internalType": "contract ISwapRouter",
          "name": "",
          "type": "address"
        }
      ],
      "stateMutability": "view",
      "type": "function"
    },
    {
      "inputs": [
        {
          "internalType": "uint256",
          "name": "amountIn",
          "type": "uint256"
        }
      ],
      "name": "swapWETHForDAI",
      "outputs": [
        {
          "internalType": "uint256",
          "name": "amountOut",
          "type": "uint256"
        }
      ],
      "stateMutability": "nonpayable",
      "type": "function"
    }
  ],
  "bytecode": "0x60a060405234801561001057600080fd5b50604051610b66380380610b6683398181016040528101906100329190610084565b8073ffffffffffffffffffffffffffffffffffffffff1660808173ffffffffffffffffffffffffffffffffffffffff1660601b8152505050610108565b60008151905061007e816100f1565b92915050565b60006020828403121561009657600080fd5b60006100a48482850161006f565b91505092915050565b60006100b8826100d1565b9050919050565b60006100ca826100ad565b9050919050565b600073ffffffffffffffffffffffffffffffffffffffff82169050919050565b6100fa816100bf565b811461010557600080fd5b50565b60805160601c610a3761012f60003980610140528061022f52806103025250610a376000f3fe608060405234801561001057600080fd5b50600436106100575760003560e01c80632ed5016f1461005c5780634aa4a4fc1461008c57806372f5d98a146100aa578063c31c9c07146100c8578063e0bab4c4146100e6575b600080fd5b61007660048036038101906100719190610787565b610104565b6040516100839190610960565b60405180910390f35b6100946102e2565b6040516100a191906108f3565b60405180910390f35b6100b26102fa565b6040516100bf9190610945565b60405180910390f35b6100d0610300565b6040516100dd919061090e565b60405180910390f35b6100ee610324565b6040516100fb91906108f3565b60405180910390f35b600061012673c02aaa39b223fe8d0a0e5c4f27ead9083c756cc233308561033c565b61016573c02aaa39b223fe8d0a0e5c4f27ead9083c756cc27f00000000000000000000000000000000000000000000000000000000000000008461055c565b600080600060405180610100016040528073c02aaa39b223fe8d0a0e5c4f27ead9083c756cc273ffffffffffffffffffffffffffffffffffffffff168152602001736b175474e89094c44da98b954eedeac495271d0f73ffffffffffffffffffffffffffffffffffffffff168152602001610bb862ffffff1681526020013373ffffffffffffffffffffffffffffffffffffffff1681526020014281526020018681526020018481526020018373ffffffffffffffffffffffffffffffffffffffff1681525090507f000000000000000000000000000000000000000000000000000000000000000073ffffffffffffffffffffffffffffffffffffffff1663414bf389826040518263ffffffff1660e01b81526004016102869190610929565b602060405180830381600087803b1580156102a057600080fd5b505af11580156102b4573d6000803e3d6000fd5b505050506040513d601f19601f820116820180604052508101906102d891906107b0565b9350505050919050565b73c02aaa39b223fe8d0a0e5c4f27ead9083c756cc281565b610bb881565b7f000000000000000000000000000000000000000000000000000000000000000081565b736b175474e89094c44da98b954eedeac495271d0f81565b6000808573ffffffffffffffffffffffffffffffffffffffff166323b872dd60e01b868686604051602401808473ffffffffffffffffffffffffffffffffffffffff1681526020018373ffffffffffffffffffffffffffffffffffffffff1681526020018281526020019350505050604051602081830303815290604052907bffffffffffffffffffffffffffffffffffffffffffffffffffffffff19166020820180517bffffffffffffffffffffffffffffffffffffffffffffffffffffffff83818316178352505050506040518082805190602001908083835b6020831061043b5780518252602082019150602081019050602083039250610418565b6001836020036101000a0380198251168184511680821785525050505050509050019150506000604051808303816000865af19150503d806000811461049d576040519150601f19603f3d011682016040523d82523d6000602084013e6104a2565b606091505b50915091508180156104e257506000815114806104e157508080602001905160208110156104cf57600080fd5b81019080805190602001909291905050505b5b610554576040517f08c379a00000000000000000000000000000000000000000000000000000000081526004018080602001828103825260038152602001807f535446000000000000000000000000000000000000000000000000000000000081525060200191505060405180910390fd5b505050505050565b6000808473ffffffffffffffffffffffffffffffffffffffff1663095ea7b360e01b8585604051602401808373ffffffffffffffffffffffffffffffffffffffff16815260200182815260200192505050604051602081830303815290604052907bffffffffffffffffffffffffffffffffffffffffffffffffffffffff19166020820180517bffffffffffffffffffffffffffffffffffffffffffffffffffffffff83818316178352505050506040518082805190602001908083835b6020831061063d578051825260208201915060208101905060208303925061061a565b6001836020036101000a0380198251168184511680821785525050505050509050019150506000604051808303816000865af19150503d806000811461069f576040519150601f19603f3d011682016040523d82523d6000602084013e6106a4565b606091505b50915091508180156106e457506000815114806106e357508080602001905160208110156106d157600080fd5b81019080805190602001909291905050505b5b610756576040517f08c379a00000000000000000000000000000000000000000000000000000000081526004018080602001828103825260028152602001807f534100000000000000000000000000000000000000000000000000000000000081525060200191505060405180910390fd5b5050505050565b60008135905061076c816109ea565b92915050565b600081519050610781816109ea565b92915050565b60006020828403121561079957600080fd5b60006107a78482850161075d565b91505092915050565b6000602082840312156107c257600080fd5b60006107d084828501610772565b91505092915050565b6107e28161097b565b82525050565b6107f18161097b565b82525050565b610800816109c6565b82525050565b6101008201600082015161081d60008501826107d9565b50602082015161083060208501826107d9565b50604082015161084360408501826108b7565b50606082015161085660608501826107d9565b50608082015161086960808501826108d5565b5060a082015161087c60a08501826108d5565b5060c082015161088f60c08501826108d5565b5060e08201516108a260e08501826108a8565b50505050565b6108b18161098d565b82525050565b6108c0816109ad565b82525050565b6108cf816109ad565b82525050565b6108de816109bc565b82525050565b6108ed816109bc565b82525050565b600060208201905061090860008301846107e8565b92915050565b600060208201905061092360008301846107f7565b92915050565b60006101008201905061093f6000830184610806565b92915050565b600060208201905061095a60008301846108c6565b92915050565b600060208201905061097560008301846108e4565b92915050565b60006109868261098d565b9050919050565b600073ffffffffffffffffffffffffffffffffffffffff82169050919050565b600062ffffff82169050919050565b6000819050919050565b60006109d1826109d8565b9050919050565b60006109e38261098d565b9050919050565b6109f3816109bc565b81146109fe57600080fd5b5056fea26469706673582212207ce184411c1be3f533586b0c8179200f28458c5b557a822a4ac5815c31059a0664736f6c63430007060033",
  "linkReferences": {},
  "deployedLinkReferences": {}
}